:10000000FCC0000028C1000026C1000024C100007F
:1000100022C1000020C100001EC100001CC1000060
:100020001AC1000018C1000016C1000014C1000070
:1000300012C1000010C100000EC100000CC1000080
:100040000AC1000008C1000006C1000004C1000090
:1000500002C1000000C10000FEC00000ABC40000EF
:10006000FAC000002EC6000062C60000F4C0000006
:10007000F2C00000F0C00000EEC00000ECC00000C4
:10008000EAC00000E8C00000E6C00000E4C00000D4
:10009000E2C00000E0C00000DEC0000064C200005A
:1000A000DAC00000D8C00000D6C00000D4C00000F4
:1000B000D2C00000D0C00000CEC00000CCC0000004
:1000C000CAC00000C8C00000C6C00000C4C0000014
:1000D000C2C00000C0C00000BEC00000BCC0000024
:1000E000BAC00000F105F405E305E705ED052B06B0
:1000F000F805FC05020606060A0610061406180690
:100100002B061E062206260600000A0B02090C0D0D
:100110000E080703040100000000000000000000BA
:1001200000000000000000000000000000000000CF
:10013000000000001211100000000000000000008C
:1001400000000000000000000000000000000102AC
:1001500010202008081020401020408002010201D9
:100160000804020101020408102040808040201091
:1001700008040201800402018040201008040201EA
:100180000804020101020408102040800102040852
:10019000102040800505050507050808080802022B
:1001A00002020A0A08080404040401010101010111
:1001B00001010303030303030303040707070C0CF4
:1001C0000C0C0C0C0C0C02020202060606060606BB
:1001D00006060B0B0B0B0B0B0B0B00002200250074
:1001E00028002B002E003100340002010000050120
:1001F00008010B0156011802C90611241FBECFEFDA
:10020000D1E2DEBFCDBF00E00CBF12E0A0E0B2E063
:10021000E4EEF0E100E00BBF02C007900D92A834BD
:10022000B107D9F723E0A8E4B2E001C01D92AA3BD0
:10023000B207E1F711E0CAEFD1E000E005C0229774
:100240000109FE010BBF48D7C43FD10780E0080772
:10025000B1F7E3D545C7D4CE88E492E0AAD384E5CC
:1002600092E0BFD040E062E088E492E019D368E019
:1002700072E088E492E019D664EC79E080E090E0E6
:1002800006D488E492E002C340E062E088E492E0B1
:1002900007D365E172E088E492E007D664E670E097
:1002A00080E090E0F4D388E492E0F0C224E044E1FE
:1002B00060E288E492E085C28091840290E020911F
:1002C0008502821B91090895209185028091840204
:1002D000281750F4E22FF0E0EA57FD4F808190E0BC
:1002E0002F5F2093850208958FEF9FEF0895E0918F
:1002F000850280918402E81730F4F0E0EA57FD4F60
:10030000808190E008958FEF9FEF08950895CF9238
:10031000DF92EF92FF920F931F93CF93DF937C01B5
:10032000CB018A0120916002222389F0EB016B014D
:10033000C40ED51ECC15DD0561F06991D701ED9194
:10034000FC910190F081E02DC7011995F3CF642F46
:10035000E1D0C801DF91CF911F910F91FF90EF90F5
:10036000DF90CF900895CF93DF931F92CDB7DEB784
:100370006983209160022223D1F020916102203212
:1003800040F021E030E0FC013383228380E090E004
:1003900014C080916202E82FF0E0ED59FD4F998181
:1003A00090838F5F809362028093610204C061E05A
:1003B000CE010196AFD081E090E00F90DF91CF9118
:1003C0000895FC011382128248EE53E060E070E071
:1003D000448355836683778384E292E091838083AC
:1003E0000895109285021092840210926202109277
:1003F000610221C081E080936002609383021092C9
:1004000062021092610208950F93062F21E040913D
:10041000610263E672E08091830229D01092620249
:1004200010926102109260020F91089561E0ECCF8A
:1004300084E592E0C6CF1092130381E0809311030C
:100440001092100361E084E107D461E085E104D4F7
:10045000E9EBF0E080818E7F808380818D7F8083D7
:1004600088E48093B80085E48093BC0008950F93DE
:10047000413208F046C0909113039111FCCF92E0F5
:1004800090931303009311039FEF9093A602109291
:10049000EB024093EA02FB016CEE72E0DB019A2F63
:1004A000961B941718F491919D93F9CF1092120313
:1004B00090911203880F892B80931203809110036F
:1004C000813041F410921003809112038093BB009D
:1004D00085EC01C085EE8093BC00222321F0809141
:1004E00013038230E1F38091A6028F3F61F0809187
:1004F000A602803251F08091A602803341F483E05D
:1005000007C081E005C080E003C082E001C084E054
:100510000F910895613298F420911303243089F4E7
:100520006093C802FC018AEC92E0DC012A2F281BB0
:10053000261718F421912D93F9CF80E0089581E0DA
:10054000089582E0089585ED8093BC008091BC0001
:1005500084FDFCCF10921303089585EC8093BC00BA
:100560001092130308951F920F920FB60F92112449
:100570000BB60F922F933F934F935F936F937F939D
:100580008F939F93AF93BF93EF93FF938091B900A5
:10059000887F803609F49CC068F5883209F45BC016
:1005A00090F4803109F454C038F4882309F4F3C07E
:1005B000883009F44DC0F2C0883109F44CC0803253
:1005C00009F45DC0EBC0803409F468C048F480339E
:1005D00009F455C0883309F0E1C08093A602A7C092
:1005E000803509F44FC0883509F45DC0883409F0BE
:1005F000D5C0D3C0883909F4C4C0A8F4883709F439
:1006000067C038F4883609F463C0803709F460C0E5
:10061000C5C0883809F4B5C0803909F45FC0803896
:1006200009F0BCC05BC0803B09F483C038F4803A59
:1006300009F466C0883A09F47CC0B0C0803C09F473
:10064000A4C0883C09F4A1C0883B09F487C0A6C0B7
:100650008091120310C09091EB028091EA029817EA
:1006600070F5E091EB0281E08E0F8093EB02F0E0F9
:10067000E451FD4F80818093BB0085EC83C0809363
:10068000A6028BC0E091EB0281E08E0F8093EB021B
:100690008091BB00F0E0E451FD4F80839091EB022C
:1006A0008091EA026BC0E091EB0281E08E0F8093B3
:1006B000EB028091BB00F0E0E451FD4F808380911C
:1006C000110381116AC081E08093100384EA5EC047
:1006D00083E0809313031092A702CFCF8091A702EB
:1006E000803208F04EC0E091A70281E08E0F809327
:1006F000A7028091BB00F0E0E855FD4F8083BDCF9D
:100700008091A702803230F4E091A702F0E0E85532
:10071000FD4F108218DF6091A70270E0E0910C039A
:10072000F0910D0388EA92E019951092A70215DF67
:1007300035C084E0809313031092C9021092C8025E
:10074000E0910E03F0910F0319958091C802811179
:1007500005C081E08093C8021092CA02E091C902EC
:1007600081E08E0F8093C902F0E0E653FD4F808157
:100770008093BB009091C9028091C802981708F439
:100780007CCF85E88093BC0009C085EC8093BC00D9
:100790001092130303C01092A602D5DEFF91EF91D1
:1007A000BF91AF919F918F917F916F915F914F9189
:1007B0003F912F910F900BBE0F900FBE0F901F9087
:1007C0001895FC011382128284E392E09183808366
:1007D00064834187228780E8838708951F93CF939E
:1007E000DF93EC01162F6C8184E592E003DEE0914B
:1007F0005402F09155026B85612B0190F081E02D40
:1008000084E592E0199584E592E0DF91CF911F9104
:100810000DCE1F93CF93DF93EC01162F6061DEDFC7
:1008200081E090E059D1612F6F7ECE01D7DF82E366
:1008300090E0DF91CF911F914FC11F93CF93DF9332
:10084000EC01162FCBDF612FCE01DF91CF911F91ED
:10085000E0CFEF92FF921F93CF93DF931F92CDB71C
:10086000DEB77C01162F62956F70642B4983E5DF3C
:10087000612F6F704981642BC7010F90DF91CF9179
:100880001F91FF90EF90D9CF40E0E3CF61E0FCDF14
:1008900080ED97E021C162E0F7DF80ED97E01CC1B9
:1008A000CF93DF93CDB7DEB728970FB6F894DEBFAE
:1008B0000FBECDBF28E0E0E0F2E0DE01119601902E
:1008C0000D922A95E1F7FC012085241710F44FEFD3
:1008D000420FFE013196E40FF11DE40FF11D20815E
:1008E000260F2068622F28960FB6F894DEBF0FBE41
:1008F000CDBFDF91CF91C8CFFC016681262F246048
:1009000026836C60C1CF40E4A4DF80E090E00895CE
:10091000CF93DF93EC01423018F08D8188608D8396
:100920004887222329F0413019F48D8184608D831A
:1009300080E593ECD1D06B85CE0150DF68EE73E09B
:1009400080E090E0A4D063E0CE0177DF84E991E11C
:10095000C3D063E0CE0171DF84E991E1BDD063E0F3
:10096000CE016BDF86E990E0B7D062E0CE0165DFB3
:100970006D816062CE0188DF84E08E83CE01BCDFB2
:10098000CE0184DF82E08F8366E0CE017DDFCE0181
:10099000DF91CF9180CFCF93DF93EC0184E592E09C
:1009A00020DD1D8220E04A856985CE01DF91CF914F
:1009B000AFCFF1CF1F920F920FB60F9211242F934A
:1009C0003F938F939F93AF93BF9380911503909123
:1009D0001603A0911703B09118033091140323E07C
:1009E000230F2D3720F40196A11DB11D05C026E867
:1009F000230F0296A11DB11D2093140380931503AC
:100A000090931603A0931703B093180380911903D2
:100A100090911A03A0911B03B0911C030196A11D94
:100A2000B11D8093190390931A03A0931B03B093F5
:100A30001C03BF91AF919F918F913F912F910F9088
:100A40000FBE0F901F9018953FB7F894809119032F
:100A500090911A03A0911B03B0911C0326B5A89B8B
:100A600005C02F3F19F00196A11DB11D3FBF66279C
:100A7000782F892F9A2F620F711D811D911D42E0E1
:100A8000660F771F881F991F4A95D1F70895CF9257
:100A9000DF92EF92FF92CF93DF936B017C01D4DF63
:100AA000EB01C114D104E104F10479F0FFD1CCDFF2
:100AB0006C1B7D0B683E7340A0F381E0C81AD1081F
:100AC000E108F108C851DC4FECCFDF91CF91FF90E6
:100AD000EF90DF90CF9008958230910538F0880F25
:100AE000991F880F991F05970197F1F7089578943A
:100AF00084B5826084BD84B5816084BD85B5826023
:100B000085BD85B5816085BDEEE6F0E080818160C0
:100B10008083E1E8F0E010828081826080838081C0
:100B200081608083E0E8F0E0808181608083E1EB98
:100B3000F0E0808184608083E0EBF0E08081816080
:100B40008083E1E9F0E08081826080838081816040
:100B50008083E0E9F0E0808181608083E1EAF0E079
:100B6000808182608083808181608083E0EAF0E020
:100B7000808181608083E1E2F1E080818260808316
:100B8000808181608083E0E2F1E080818160808308
:100B9000EAE7F0E0808184608083808182608083E6
:100BA0008081816080838081806880831092C10011
:100BB000089590E0FC013197E231F10508F04BC057
:100BC000EE58FF4F83C2809180008F7703C08091E1
:100BD00080008F7D80938000089580918000877FC2
:100BE000F9CF84B58F7702C084B58F7D84BD089519
:100BF0008091B0008F7703C08091B0008F7D80938B
:100C0000B0000895809190008F7707C08091900088
:100C10008F7D03C080919000877F8093900008951E
:100C20008091A0008F7707C08091A0008F7D03C0C6
:100C30008091A000877F8093A0000895809120017B
:100C40008F7707C0809120018F7D03C080912001A4
:100C5000877F8093200108950F931F93CF93DF9395
:100C60001F92CDB7DEB7282F30E0F901E85FFE4FC5
:100C70008491F901E25BFE4F1491F901EC56FE4FAD
:100C800004910023C1F0882319F0698392DF698100
:100C9000E02FF0E0EE0FFF1FE652FE4FA591B4915A
:100CA0009FB7F8948C91611103C01095812301C006
:100CB000812B8C939FBF0F90DF91CF911F910F914C
:100CC00008951F920F920FB60F9211240BB60F9238
:100CD0002F938F939F93EF93FF93E0912D03F091C8
:100CE0002E038081E0913303F091340382FD12C022
:100CF0009081809136038F5F8F7320913703821725
:100D000051F0E0913603F0E0E35EFC4F958F809365
:100D1000360301C08081FF91EF919F918F912F91B8
:100D20000F900BBE0F900FBE0F901F9018951F9243
:100D30000F920FB60F9211240BB60F922F933F9381
:100D40004F935F936F937F938F939F93AF93BF93D3
:100D5000EF93FF938DE193E013D1FF91EF91BF915A
:100D6000AF919F918F917F916F915F914F913F9143
:100D70002F910F900BBE0F900FBE0F901F901895E4
:100D80008DE193E094D021E0892B09F420E0822FBB
:100D900008951092200310921F0388EE93E0A0E0C4
:100DA000B0E08093210390932203A0932303B09398
:100DB00024038CE392E090931E0380931D0385EC43
:100DC00090E090932A038093290384EC90E0909321
:100DD0002C0380932B0380EC90E090932E03809360
:100DE0002D0381EC90E09093300380932F0382ECED
:100DF00090E0909332038093310386EC90E09093DF
:100E00003403809333031092360310923703109209
:100E10003803109239030895089569DEFDDF1CDA66
:100E2000C4E8D7E031DA2097E9F36ED0FBCFCF9258
:100E3000DF92EF92FF920F931F93CF93DF936C019A
:100E40007A01EB01E60EF71E00E010E0CE15DF059B
:100E500061F06991D601ED91FC910190F081E02D56
:100E6000C6011995080F191FF1CFC801DF91CF9165
:100E70001F910F91FF90EF90DF90CF900895611533
:100E8000710581F0DB010D900020E9F7AD014150C3
:100E90005109461B570BDC01ED91FC910280F38157
:100EA000E02D199480E090E00895E9CF0895FC01C9
:100EB000818D228D90E0805C9F4F821B91098F7302
:100EC00099270895FC01918D828D981731F0828DBC
:100ED000E80FF11D858D90E008958FEF9FEF089545
:100EE000FC01918D828D981761F0828DDF01A80F32
:100EF000B11D5D968C91928D9F5F9F73928F90E054
:100F000008958FEF9FEF089580EC96E0892B39F0DC
:100F100080E090E0892B19F033DF811125C080E05B
:100F200090E0892B41F080E090E0892B21F00E9435
:100F3000000081111CC080E090E0892B41F080E02E
:100F400090E0892B21F00E940000811113C080E005
:100F500090E0892BA1F080E090E0892B81F00E9445
:100F6000000081110AC008950E940000D8CF0E949D
:100F70000000E1CF0E940000EACF0C940000089529
:100F8000FC01848DDF01A80FB11DA35ABF4F2C9126
:100F9000848D90E001968F739927848FA689B789F5
:100FA0002C93A089B1898C9180648C93938D848DCE
:100FB000981306C00288F389E02D80818F7D80839D
:100FC0000895CF93DF93EC01888D8823C1F0EA89DF
:100FD000FB89808185FD05C0A889B9898C9186FD32
:100FE0000EC00FB607FCF5CF808185FFF2CFA88930
:100FF000B9898C9185FFEDCFCE01C2DFE8CFDF91BB
:10100000CF910895CF92DF92FF920F931F93CF93CA
:10101000DF931F92CDB7DEB76C0181E0D601589601
:101020008C9358975B969C915B975C968C915C97A0
:10103000981307C05096ED91FC915197808185FDE2
:101040002DC0F601038D10E00F5F1F4F0F731127A6
:10105000F02EF601848DF81210C00FB607FCF9CF00
:10106000D6015096ED91FC915197808185FFF1CF8B
:10107000C601698385DF6981ECCF838DE80FF11D9F
:10108000E35AFF4F6083D6015B960C935B975296B1
:10109000ED91FC915397808180620CC0D6015696E9
:1010A000ED91FC91579760835096ED91FC9151978B
:1010B00080818064808381E090E00F90DF91CF9108
:1010C0001F910F91FF90DF90CF900895EE0FFF1FBB
:1010D0000590F491E02D19940790F691E02D199464
:0410E000F894FFCFB2
:1010E400000040001400540048656C6C6F20576F7A
:1010F400726C642100486F6C61206D756E646F00C2
:1011040000000000B30187015C01640177018601DE
:1011140000000000830417070000000002081707FE
:08112400570770076207E1079D
:00000001FF
