:1000000009C1000037C1000035C1000033C1000044
:1000100031C100002FC100002DC100002BC1000024
:1000200029C1000027C1000025C1000023C1000034
:1000300021C100001FC100001DC100001BC1000044
:1000400019C1000017C1000015C1000013C1000054
:1000500011C100000FC100000DC1000057C6000013
:1000600009C100000C946B080C94A10803C10000A6
:1000700001C10000FFC00000FDC00000FBC0000087
:10008000F9C00000F7C00000F5C00000F3C0000098
:10009000F1C00000EFC00000EDC0000006C300008A
:1000A000E9C00000E7C00000E5C00000E3C00000B8
:1000B000E1C00000DFC00000DDC00000DBC00000C8
:1000C000D9C00000D7C00000D5C00000D3C00000D8
:1000D000D1C00000CFC00000CDC00000CBC00000E8
:1000E000C9C00000C207C507B407B807BE07FC07B0
:1000F000C907CD07D307D707DB07E107E507E907FE
:10010000FC07EF07F307F70700000A0B02090C0DC5
:100110000E080703040100000000000000000000BA
:1001200000000000000000000000000000000000CF
:10013000000000001211100000000000000000008C
:1001400000000000000000000000000000000102AC
:1001500010202008081020401020408002010201D9
:100160000804020101020408102040808040201091
:1001700008040201800402018040201008040201EA
:100180000804020101020408102040800102040852
:10019000102040800505050507050808080802022B
:1001A00002020A0A08080404040401010101010111
:1001B00001010303030303030303040707070C0CF4
:1001C0000C0C0C0C0C0C02020202060606060606BB
:1001D00006060B0B0B0B0B0B0B0B00002200250074
:1001E00028002B002E003100340002010000050120
:1001F00008010B0100002100240027002A002D0027
:100200003000330001010000040107010A01F80178
:10021000BA02D30811241FBECFEFD1E2DEBFCDBF9B
:1002200000E00CBF12E0A0E0B2E0E4E3FEE100E099
:100230000BBF02C007900D92AC34B107D9F724E090
:10024000ACE4B2E001C01D92A232B207E1F712E0C5
:10025000C4E1D2E000E006C022970109FE010BBF15
:100260000E94050FCE30D10780E00807A9F7DFD73D
:100270000C94180FC5CE8CEB92E055D18CE492E033
:100280003ED48CE492E067D360E086E3B6D623E305
:1002900033E34EED52E461E070E080E692E030C47A
:1002A000AF92BF92CF92DF92EF92FF920F931F9384
:1002B00040E060E08CE492E099D368EC75E080E681
:1002C00092E059D464EF71E080E090E08CD586E351
:1002D0001CD6BC01882777FD8095982F0E94360D8B
:1002E00060935C0270935D0280935E0290935F0264
:1002F00020E030E04DEC53E40E94970C87FF08C0EB
:100300008CE492E069D36DE072E08CE492E0D7D7A0
:10031000C0905C02D0905D02E0905E02F0905F02BF
:1003200020E030E84CEC53E4C701B6010E94E60D32
:1003300018160CF054C0C701B6010E94030D1F929D
:100340001F9222E02F9326E62F93A12CB12C65015A
:10035000EE24EA9413E0F12E00E010E02AE931E007
:1003600040E050E00E94DD0A0E94360D60935C027E
:1003700070935D0280935E0290935F0220E030E014
:1003800046E153E40E94EA0D20E030E849E154E4FC
:100390000E949B0C609358027093590280935A02FA
:1003A00090935B028CE492E017D30F900F900F9024
:1003B0000F90409158025091590260915A027091E9
:1003C0005B0222E030E08CE492E01F910F91FF90FD
:1003D000EF90DF90CF90BF90AF900C94DC0A1F910C
:1003E0000F91FF90EF90DF90CF90BF90AF90089566
:1003F00024E044E167E28CE492E085C28091EC0263
:1004000090E02091ED02821B910908952091ED0268
:100410008091EC02281750F4E22FF0E0E251FD4FFA
:10042000808190E02F5F2093ED0208958FEF9FEF82
:100430000895E091ED028091EC02E81730F4F0E0CD
:10044000E251FD4F808190E008958FEF9FEF089576
:100450000895CF92DF92EF92FF920F931F93CF9365
:10046000DF937C01CB018A012091C802222389F00D
:10047000EB016B01C40ED51ECC15DD0561F0699151
:10048000D701ED91FC910190F081E02DC701199504
:10049000F3CF642FE1D0C801DF91CF911F910F916D
:1004A000FF90EF90DF90CF900895CF93DF931F924E
:1004B000CDB7DEB769832091C8022223D1F0209105
:1004C000C902203240F021E030E0FC013383228376
:1004D00080E090E014C08091CA02E82FF0E0E5537C
:1004E000FD4F998190838F5F8093CA028093C902E8
:1004F00004C061E0CE010196AFD081E090E00F90A2
:10050000DF91CF910895FC011382128248EE53E0EF
:1005100060E070E0448355836683778387E192E0EF
:100520009183808308951092ED021092EC02109254
:10053000CA021092C90221C081E08093C802609370
:10054000EB021092CA021092C90208950F93062F6F
:1005500021E04091C9026BEC72E08091EB0229D05E
:100560001092CA021092C9021092C8020F91089507
:1005700061E0ECCF8CEB92E0C6CF10927B0381E080
:10058000809379031092780361E084E16FD561E094
:1005900085E16CD5E9EBF0E080818E7F80838081FE
:1005A0008D7F808388E48093B80085E48093BC00CD
:1005B00008950F93413208F046C090917B0391114A
:1005C000FCCF92E090937B03009379039FEF90938D
:1005D0000E031092530340935203FB0164E573E052
:1005E000DB019A2F961B941718F491919D93F9CFE4
:1005F00010927A0390917A03880F892B80937A0363
:1006000080917803813041F41092780380917A03CD
:100610008093BB0085EC01C085EE8093BC00222353
:1006200021F080917B038230E1F380910E038F3FB4
:1006300061F080910E03803251F080910E0380337F
:1006400041F483E007C081E005C080E003C082E0A0
:1006500001C084E00F910895613298F420917B03EA
:10066000243089F460933003FC0182E393E0DC01E1
:100670002A2F281B261718F421912D93F9CF80E0FB
:10068000089581E0089582E0089585ED8093BC008F
:100690008091BC0084FDFCCF10927B03089585EC13
:1006A0008093BC0010927B0308951F920F920FB6A7
:1006B0000F9211240BB60F922F933F934F935F939A
:1006C0006F937F938F939F93AF93BF93EF93FF931A
:1006D0008091B900887F803609F49CC068F5883223
:1006E00009F45BC090F4803109F454C038F48823D5
:1006F00009F4F3C0883009F44DC0F2C0883109F420
:100700004CC0803209F45DC0EBC0803409F468C08D
:1007100048F4803309F455C0883309F0E1C0809370
:100720000E03A7C0803509F44FC0883509F45DC0B9
:10073000883409F0D5C0D3C0883909F4C4C0A8F4FE
:10074000883709F467C038F4883609F463C0803705
:1007500009F460C0C5C0883809F4B5C0803909F40F
:100760005FC0803809F0BCC05BC0803B09F483C027
:1007700038F4803A09F466C0883A09F47CC0B0C005
:10078000803C09F4A4C0883C09F4A1C0883B09F46A
:1007900087C0A6C080917A0310C0909153038091C6
:1007A0005203981770F5E091530381E08E0F809308
:1007B0005303F0E0EC5AFC4F80818093BB0085EC42
:1007C00083C080930E038BC0E091530381E08E0FB2
:1007D000809353038091BB00F0E0EC5AFC4F808380
:1007E00090915303809152036BC0E091530381E0D9
:1007F0008E0F809353038091BB00F0E0EC5AFC4FC6
:1008000080838091790381116AC081E080937803AD
:1008100084EA5EC083E080937B0310920F03CFCF06
:1008200080910F03803208F04EC0E0910F0381E009
:100830008E0F80930F038091BB00F0E0E05FFC4FD0
:100840008083BDCF80910F03803230F4E0910F039D
:10085000F0E0E05FFC4F108218DF60910F0370E062
:10086000E0917403F091750380E193E01995109283
:100870000F0315DF35C084E080937B0310923103B2
:1008800010923003E0917603F091770319958091EF
:100890003003811105C081E0809330031092320350
:1008A000E091310381E08E0F80933103F0E0EE5C44
:1008B000FC4F80818093BB00909131038091300385
:1008C000981708F47CCF85E88093BC0009C085ECBC
:1008D0008093BC0010927B0303C010920E03D5DE00
:1008E000FF91EF91BF91AF919F918F917F916F9108
:1008F0005F914F913F912F910F900BBE0F900FBEC4
:100900000F901F901895FC011382128287E292E0EB
:100910009183808364834187228780E88387089559
:100920001F93CF93DF93EC01162F6C818CEB92E039
:1009300003DEE091BC02F091BD026B85612B01905A
:10094000F081E02D8CEB92E019958CEB92E0DF9139
:10095000CF911F910DCEFC01138660E0E1CF1F9374
:10096000CF93DF93EC01162F6061DADF81E090E036
:100970005FD2612F6F7ECE01D3DF82E390E0DF9103
:10098000CF911F9155C21F93CF93DF93EC01162F88
:10099000C7DF612FCE01DF91CF911F91E0CFEF92A2
:1009A000FF921F93CF93DF931F92CDB7DEB77C01E9
:1009B000162F62956F70642B4983E5DF612F6F708E
:1009C0004981642BC7010F90DF91CF911F91FF9058
:1009D000EF90D9CF40E0E3CF61E0FCDF80ED97E01E
:1009E00027C262E0F7DF80ED97E022C2CF93DF936A
:1009F000CDB7DEB728970FB6F894DEBF0FBECDBFD8
:100A000028E0E5E0F2E0DE01119601900D922A95D2
:100A1000E1F7FC012085241710F44FEF420FFE018F
:100A20003196E40FF11DE40FF11D2081260F20689F
:100A3000622F28960FB6F894DEBF0FBECDBFDF91B0
:100A4000CF91C8CFFC016681262F246026836C607D
:100A5000C1CF40E4A4DF80E090E00895CF93DF931E
:100A6000EC01423018F08D8188608D834887222305
:100A700029F0413019F48D8184608D8380E593ECF9
:100A8000D7D16B85CE014CDF68EE73E080E090E05B
:100A9000AAD163E0CE0177DF84E991E1C9D163E0B7
:100AA000CE0171DF84E991E1C3D163E0CE016BDF58
:100AB00086E990E0BDD162E0CE0165DF6D816062C4
:100AC000CE0188DF84E08E83CE01BCDFCE0184DFDF
:100AD00082E08F8366E0CE017DDFCE01DF91CF9192
:100AE00080CFCF93DF93EC018CEB92E01CDD1D8275
:100AF00020E04A856985CE01DF91CF91AFCFF1CF5C
:100B0000FC01778B668B248F358F468F578F40E0A3
:100B100050E060E074E440AF51AF62AF73AF08954E
:100B20008EE580937C0080917B00877F80937B00A3
:100B300062E070E080E090E056D180917A008064BD
:100B400080937A0080917A0086FDFCCF80917800B6
:100B50002091790030E0322F2227442737FD40953D
:100B6000542F282B60E070E381E190E00E94D90EC1
:100B7000CA01B90108952F923F924F925F926F92EE
:100B80007F928F929F92AF92BF92CF92DF92EF921D
:100B9000FF920F931F93CF93DF9300D000D0CDB778
:100BA000DEB79E838D837A836983BADF2B013C0194
:100BB00000E010E08D819E81845B9F4F1C01ED81E0
:100BC000FE81E85BFF4FFC83EB8389819A810817E4
:100BD000190709F44DC0ED81FE81868996D1ED811A
:100BE000FE8197A386A3BC01882777FD8095982F67
:100BF0003DD76B017C01ED81FE8180AC91ACA2AC54
:100C0000B3ACA50194012ED620E030E040E85AE3D1
:100C1000E1D79B01AC01C501B40125D69B01AC0114
:100C2000ED81FE8160AF71AF82AF93AFC701B601B6
:100C300019D6ED81FE8160AB71AB82AB93AB9B01AA
:100C4000AC01C8D79B01AC01EB81FC81608371834F
:100C500082839383F101608171818281938103D6C4
:100C6000F10160837183828393830F5F1F4FADCF48
:100C7000B80180E090E0F8D69B01AC01F101608101
:100C800071818281938157D60E94510E6B017C0144
:100C9000B201882777FD8095982FE8D620E030E0D4
:100CA0004AE754E448D620E030E040E85AE392D7DF
:100CB000ED81FE81248D358D468D578D8BD7A70113
:100CC000960188D7ED81FE81608B718B828B938B2F
:100CD000F101108211821282138226960FB6F894C7
:100CE000DEBF0FBECDBFDF91CF911F910F91FF905F
:100CF000EF90DF90CF90BF90AF909F908F907F90BC
:100D00006F905F904F903F902F9008951F920F9299
:100D10000FB60F9211242F933F938F939F93AF930E
:100D2000BF9380917D0390917E03A0917F03B0914A
:100D3000800330917C0323E0230F2D3720F40196AC
:100D4000A11DB11D05C026E8230F0296A11DB11DEE
:100D500020937C0380937D0390937E03A0937F0375
:100D6000B09380038091810390918203A0918303CB
:100D7000B09184030196A11DB11D809381039093CE
:100D80008203A0938303B0938403BF91AF919F919B
:100D90008F913F912F910F900FBE0F901F9018953C
:100DA0003FB7F8948091810390918203A0918303CF
:100DB000B091840326B5A89B05C02F3F19F001967A
:100DC000A11DB11D3FBF6627782F892F9A2F620F73
:100DD000711D811D911D42E0660F771F881F991FAD
:100DE0004A95D1F70895CF92DF92EF92FF92CF9379
:100DF000DF936B017C01D4DFEB01C114D104E1046A
:100E0000F10479F01FD4CCDF6C1B7D0B683E73407E
:100E1000A0F381E0C81AD108E108F108C851DC4FFD
:100E2000ECCFDF91CF91FF90EF90DF90CF900895BE
:100E30008230910538F0880F991F880F991F059708
:100E40000197F1F70895789484B5826084BD84B5E4
:100E5000816084BD85B5826085BD85B5816085BDB5
:100E6000EEE6F0E0808181608083E1E8F0E01082CE
:100E7000808182608083808181608083E0E8F0E00F
:100E8000808181608083E1EBF0E0808184608083F9
:100E9000E0EBF0E0808181608083E1E9F0E0808137
:100EA00082608083808181608083E0E9F0E08081DE
:100EB00081608083E1EAF0E08081826080838081CC
:100EC00081608083E0EAF0E0808181608083E1E2FC
:100ED000F1E0808182608083808181608083E0E2B4
:100EE000F1E0808181608083EAE7F0E080818460C6
:100EF0008083808182608083808181608083808123
:100F0000806880831092C1000895863308F086536C
:100F100020917B00982F9870277F922B90937B00D5
:100F200087702091040290E4299F90011124822B64
:100F300080937C0080917A00806480937A00809115
:100F40007A0086FDFCCF809178002091790090E0B6
:100F5000922B089590E0FC013197E231F10508F001
:100F60004BC0EE58FF4F41C7809180008F7703C080
:100F7000809180008F7D8093800008958091800013
:100F8000877FF9CF84B58F7702C084B58F7D84BD0C
:100F900008958091B0008F7703C08091B0008F7D5D
:100FA0008093B0000895809190008F7707C0809162
:100FB00090008F7D03C080919000877F8093900088
:100FC00008958091A0008F7707C08091A0008F7D49
:100FD00003C08091A000877F8093A0000895809136
:100FE00020018F7707C0809120018F7D03C0809101
:100FF0002001877F809320010895CF93DF9390E0B5
:10100000FC01E25BFE4F2491FC01EC56FE4F849103
:10101000882349F190E0880F991FFC01EC50FE4FA6
:10102000A591B49186529E4FFC01C591D4919FB772
:10103000611108C0F8948C91209582238C9388814B
:1010400082230AC0623051F4F8948C91322F30958B
:1010500083238C938881822B888304C0F8948C919D
:10106000822B8C939FBFDF91CF9108950F931F9395
:10107000CF93DF931F92CDB7DEB7282F30E0F90171
:10108000E85FFE4F8491F901E25BFE4F1491F90194
:10109000EC56FE4F04910023C1F0882319F06983B8
:1010A00059DF6981E02FF0E0EE0FFF1FE652FE4F9F
:1010B000A591B4919FB7F8948C91611103C01095DC
:1010C000812301C0812B8C939FBF0F90DF91CF9123
:1010D0001F910F9108951F920F920FB60F92112436
:1010E0000BB60F922F938F939F93EF93FF93E09103
:1010F0009503F09196038081E0919B03F0919C030E
:1011000082FD12C0908180919E038F5F8F7320912A
:101110009F03821751F0E0919E03F0E0EB57FC4FE4
:10112000958F80939E0301C08081FF91EF919F91E5
:101130008F912F910F900BBE0F900FBE0F901F90AD
:1011400018951F920F920FB60F9211240BB60F92A3
:101150002F933F934F935F936F937F938F939F93BF
:10116000AF93BF93EF93FF9385E893E0D5D2FF91C0
:10117000EF91BF91AF919F918F917F916F915F910F
:101180004F913F912F910F900BBE0F900FBE0F907C
:101190001F90189585E893E056D221E0892B09F439
:1011A00020E0822F0895109288031092870388EE22
:1011B00093E0A0E0B0E08093890390938A03A0932A
:1011C0008B03B0938C0380E492E09093860380932A
:1011D000850385EC90E0909392038093910384ECD7
:1011E00090E0909394038093930380EC90E090932D
:1011F00096038093950381EC90E0909398038093FD
:10120000970382EC90E090939A038093990386EC85
:1012100090E090939C0380939B0310929E03109206
:101220009F031092A0031092A103089508950BDE6E
:10123000FDDF21D8C0E5DBE033D82097E9F330D2D9
:10124000FBCFCF92DF92EF92FF920F931F93CF933A
:10125000DF936C017A01EB01E60EF71E00E010E06F
:10126000CE15DF0561F06991D601ED91FC910190F9
:10127000F081E02DC6011995080F191FF1CFC801A3
:10128000DF91CF911F910F91FF90EF90DF90CF9062
:1012900008956115710581F0DB010D900020E9F7DB
:1012A000AD0141505109461B570BDC01ED91FC91FA
:1012B0000280F381E02D199480E090E00895E9CF59
:1012C000DC01ED91FC910190F081E02D19948F9259
:1012D0009F92AF92BF92CF92DF92EF92FF920F93C5
:1012E0001F93CF93DF93CDB7DEB7A1970FB6F894D6
:1012F000DEBF0FBECDBF7C01C42EE52FCB01D22EA9
:1013000019A221E02D1510F02AE0D22E8E010F5DDA
:101310001F4F8D2C912CA12CB12C6C2D7E2FA50153
:10132000940125D58C2DD29E8019112401501109CC
:101330008A3014F4805D01C0895CF8018083211536
:1013400031054105510521F0C22EE32FCA01E5CF39
:10135000B801C7019EDFA1960FB6F894DEBF0FBE9D
:10136000CDBFDF91CF911F910F91FF90EF90DF9054
:10137000CF90BF90AF909F908F900895CF92DF92C3
:10138000EF92FF920F931F93CF93DF93EC016A01CB
:101390007B012115310579F4E881F9810190F08113
:1013A000E02D642FDF91CF911F910F91FF90EF906F
:1013B000DF90CF9019942A303105D9F477FF18C007
:1013C0006DE27EDF8C0144275527BA014C195D0977
:1013D0006E097F092AE0CE017ADF800F911FDF912D
:1013E000CF911F910F91FF90EF90DF90CF900895D4
:1013F0002AE0B701A601CE01DF91CF911F910F9195
:10140000FF90EF90DF90CF9062CF4F925F926F92FC
:101410007F928F929F92AF92BF92CF92DF92EF9284
:10142000FF920F931F93CF93DF93EC016A017B012F
:10143000B22E9A01AB01C701B60171D4882319F00D
:101440006EE272E024C026013701E89477F82FEFAE
:101450003FEF4FE75FE7C301B20161D481110CC0D8
:101460002FEF3FEF4FE75FE7C301B20160D21816DD
:101470001CF462E372E00BC02FEF3FEF4FE75FE435
:10148000C701B601A3D31816A4F466E372E0CE0137
:10149000DF91CF911F910F91FF90EF90DF90CF9050
:1014A000BF90AF909F908F907F906F905F904F9084
:1014B000F0CE2FEF3FEF4FE75FECC701B60137D219
:1014C00087FDE3CF20E030E0A901C701B6012FD2AC
:1014D00087FF09C06DE2CE01F3DE8C01F7FAF094CC
:1014E000F7F8F09402C000E010E0A12C60E070E09A
:1014F00080E09FE3AB1439F020E030E040E251E4BB
:101500001AD2A394F7CF9B01AC01C701B601ABD1AE
:101510006B017C017DD22B013C01A6D29B01AC0169
:10152000C701B6019FD16B017C012AE0B301A20182
:10153000CE01CDDE080F191FBB2031F06AE372E047
:10154000CE01A7DE080F191F7B2C772019F120E0B0
:1015500030E040E251E4C701B6013CD36B017C01AD
:1015600052D24B01AA2497FCA094BA2C2AE030E076
:10157000B501A401CE0102DF080F191FC501B40196
:1015800075D29B01AC01C701B6016CD16B017C0126
:101590007A94DBCFC801DF91CF911F910F91FF901B
:1015A000EF90DF90CF90BF90AF909F908F907F9003
:1015B0006F905F904F90089528CF4F925F926F92F7
:1015C0007F92AF92BF92CF92DF92EF92FF920F93F2
:1015D0001F93CF93DF93CDB7DEB729013A01621B8A
:1015E000730B840B950B2A893B894C895D892A19D9
:1015F0003B094C095D092A8B3B8B4C8B5D8B9B0116
:10160000AC016A897B898C899D89A2D3E418F5088D
:1016100006091709A8019701CCD32A0D3B1D4C1DC3
:101620005D1DCA01B901DF91CF911F910F91FF900C
:10163000EF90DF90CF90BF90AF907F906F905F90D2
:101640004F9008950895FC01818D228D90E0805C7B
:101650009F4F821B91098F7399270895FC01918DEB
:10166000828D981731F0828DE80FF11D858D90E005
:1016700008958FEF9FEF0895FC01918D828D98174B
:1016800061F0828DDF01A80FB11D5D968C91928D66
:101690009F5F9F73928F90E008958FEF9FEF089563
:1016A0008AEC98E0892B39F080E090E0892B19F0E2
:1016B00071DD811125C080E090E0892B41F080E050
:1016C00090E0892B21F00E94000081111CC080E075
:1016D00090E0892B41F080E090E0892B21F00E947E
:1016E0000000811113C080E090E0892BA1F080E020
:1016F00090E0892B81F00E94000081110AC00895BA
:101700000E940000D8CF0E940000E1CF0E9400009C
:10171000EACF0C9400000895FC01848DDF01A80F2E
:10172000B11DA35ABF4F2C91848D90E001968F7309
:101730009927848FA689B7892C93A089B1898C9128
:1017400080648C93938D848D981306C00288F389EE
:10175000E02D80818F7D80830895CF93DF93EC010E
:10176000888D8823C1F0EA89FB89808185FD05C0C9
:10177000A889B9898C9186FD0EC00FB607FCF5CFFC
:10178000808185FFF2CFA889B9898C9185FFEDCF43
:10179000CE01C2DFE8CFDF91CF910895CF92DF92E3
:1017A000FF920F931F93CF93DF931F92CDB7DEB7B6
:1017B0006C0181E0D60158968C9358975B969C916A
:1017C0005B975C968C915C97981307C05096ED914F
:1017D000FC915197808185FD2DC0F601038D10E0AD
:1017E0000F5F1F4F0F731127F02EF601848DF81233
:1017F00010C00FB607FCF9CFD6015096ED91FC91C1
:101800005197808185FFF1CFC601698385DF6981AA
:10181000ECCF838DE80FF11DE35AFF4F6083D601B3
:101820005B960C935B975296ED91FC915397808158
:1018300080620CC0D6015696ED91FC91579760835B
:101840005096ED91FC91519780818064808381E076
:1018500090E00F90DF91CF911F910F91FF90DF905B
:10186000CF9008955058BB27AA270ED075C166D1D6
:1018700030F06BD120F031F49F3F11F41EF45BC1C6
:101880000EF4E095E7FB51C1E92F77D180F3BA1749
:10189000620773078407950718F071F49EF58FC1EE
:1018A0000EF4E0950B2EBA2FA02D0B01B90190017B
:1018B0000C01CA01A0011124FF27591B99F0593FBF
:1018C00050F4503E68F11A16F040A22F232F342F07
:1018D0004427585FF3CF469537952795A795F04055
:1018E0005395C9F77EF41F16BA0B620B730B840B6A
:1018F000BAF09150A1F0FF0FBB1F661F771F881F22
:10190000C2F70EC0BA0F621F731F841F48F4879579
:1019100077956795B795F7959E3F08F0B3CF939568
:10192000880F08F09927EE0F979587950895D9D0DD
:1019300008F481E008950CD00FC107D140F0FED02B
:1019400030F021F45F3F19F0F0C0511139C1F3C0FC
:1019500014D198F39923C9F35523B1F3951B550B73
:10196000BB27AA2762177307840738F09F5F5F4F72
:10197000220F331F441FAA1FA9F333D00E2E3AF0B3
:10198000E0E830D091505040E695001CCAF729D0CD
:10199000FE2F27D0660F771F881FBB1F261737071C
:1019A0004807AB07B0E809F0BB0B802DBF01FF274C
:1019B00093585F4F2AF09E3F510568F0B6C000C1B2
:1019C0005F3FECF3983EDCF3869577956795B79586
:1019D000F7959F5FC9F7880F911D9695879597F9A1
:1019E0000895E1E0660F771F881FBB1F621773071A
:1019F0008407BA0720F0621B730B840BBA0BEE1F2F
:101A000088F7E095089504D06894B111D9C008957D
:101A1000BCD088F09F5790F0B92F9927B751A0F00C
:101A2000D1F0660F771F881F991F1AF0BA95C9F772
:101A300012C0B13081F0C3D0B1E00895C0C0672FAB
:101A4000782F8827B85F39F0B93FCCF38695779522
:101A50006795B395D9F73EF490958095709561950B
:101A60007F4F8F4F9F4F0895E89409C097FB3EF436
:101A700090958095709561957F4F8F4F9F4F9923DB
:101A8000A9F0F92F96E9BB279395F6958795779559
:101A90006795B795F111F8CFFAF4BB0F11F460FF19
:101AA0001BC06F5F7F4F8F4F9F4F16C0882311F071
:101AB00096E911C0772321F09EE8872F762F05C085
:101AC000662371F096E8862F70E060E02AF09A9520
:101AD000660F771F881FDAF7880F9695879597F915
:101AE0000895990F0008550FAA0BE0E8FEEF1616AF
:101AF0001706E807F907C0F012161306E407F50702
:101B000098F0621B730B840B950B39F40A2661F075
:101B1000232B242B252B21F408950A2609F4A14018
:101B2000A6958FEF811D811D089597F99F6780E825
:101B300070E060E008959FEF80EC089500240A941F
:101B40001616170618060906089500240A94121698
:101B50001306140605060895092E0394000C11F4CB
:101B6000882352F0BB0F40F4BF2B11F460FF04C078
:101B70006F5F7F4F8F4F9F4F089557FD9058440FD1
:101B8000551F59F05F3F71F04795880F97FB991FDC
:101B900061F09F3F79F08795089512161306140699
:101BA000551FF2CF4695F1DF08C016161706180626
:101BB000991FF1CF86957105610508940895E89401
:101BC000BB2766277727CB0197F908958ADF08F4AA
:101BD0008FEF08950BD0C0CFB1DF28F0B6DF18F03B
:101BE000952309F0A2CFA7CF1124EACFC6DFA0F337
:101BF000959FD1F3950F50E0551F629FF001729FA2
:101C0000BB27F00DB11D639FAA27F00DB11DAA1FC0
:101C1000649F6627B00DA11D661F829F2227B00D0D
:101C2000A11D621F739FB00DA11D621F839FA00D98
:101C3000611D221F749F3327A00D611D231F849FE8
:101C4000600D211D822F762F6A2F11249F5750403F
:101C50008AF0E1F088234AF0EE0FFF1FBB1F661FDA
:101C6000771F881F91505040A9F79E3F510570F093
:101C70005CCFA6CF5F3FECF3983EDCF3869577957B
:101C80006795B795F795E7959F5FC1F7FE2B880F8E
:101C9000911D9695879597F9089511F40EF44BCF01
:101CA00042C073DFD0F39923D9F3CEF39F57550B7E
:101CB00087FF47D00024A0E640EA9001805856955F
:101CC000979528F4805C660F771F881F20F02617F1
:101CD0003707480730F4621B730B840B2029312926
:101CE0004A2BA69517940794202531254A2758F7A3
:101CF000660F771F881F20F026173707480730F434
:101D0000620B730B840B200D311D411DA09581F7D3
:101D1000B901842F9158880F969587950895E1DE33
:101D2000880B990B08959F3F31F0915020F48795CF
:101D300077956795B795880F911D9695879597F933
:101D4000089591505040660F771F881FD2F708956D
:101D5000DB018F939F934FD0BF91AF91A29F800DD6
:101D6000911DA39F900DB29F900D11240895A1E2A3
:101D70001A2EAA1BBB1BFD010DC0AA1FBB1FEE1F05
:101D8000FF1FA217B307E407F50720F0A21BB30B50
:101D9000E40BF50B661F771F881F991F1A9469F7CC
:101DA00060957095809590959B01AC01BD01CF0128
:101DB0000895052E97FB16F400940FD057FD05D01B
:101DC000D6DF07FC02D046F408C050954095309508
:101DD00021953F4F4F4F5F4F089590958095709597
:101DE00061957F4F8F4F9F4F0895EE0FFF1F059016
:101DF000F491E02D19940DD0A59F900DB49F900DF6
:101E0000A49F800D911D112408950790F691E02D57
:101E10001994A29FB001B39FC001A39F700D811DB3
:101E20001124911DB29F700D811D1124911D0895E3
:041E3000F894FFCF54
:101E340001000000010000400014005400457272CB
:101E44006F72000000000055022902FE010602190B
:101E540002280200000000290521090D0A006E6114
:101E64006E00696E66006F7666002E00000000004A
:0C1E7400CE0B2109230B3C0B2E0BAD0BF9
:00000001FF
