:1000000016C1000045C1000043C1000041C100000D
:100010003FC100003DC100003BC1000039C10000EC
:1000200037C1000035C1000033C1000031C10000FC
:100030002FC100002DC100002BC1000029C100000C
:1000400027C1000025C1000023C1000021C100001C
:100050001FC100001DC100001BC100000C940B0B50
:1000600017C100000C94240D0C945A0D11C100000E
:100070000FC100000DC100000BC1000009C100004C
:1000800007C1000005C1000003C1000001C100005C
:10009000FFC00000FDC00000FBC00000B9C40000AC
:1000A000F7C00000F5C00000F3C00000F1C0000080
:1000B000EFC00000EDC00000EBC00000E9C0000090
:1000C000E7C00000E5C00000E3C00000E1C00000A0
:1000D000DFC00000DDC00000DBC00000D9C00000B0
:1000E000D7C00000530C560C450C490C4F0C8D0C1E
:1000F0005A0C5E0C640C680C6C0C720C760C7A0C4E
:100100008D0C800C840C880C00000A0B02090C0D6D
:100110000E080703040100000000000000000000BA
:1001200000000000000000000000000000000000CF
:10013000000000001211100000000000000000008C
:1001400000000000000000000000000000000102AC
:1001500010202008081020401020408002010201D9
:100160000804020101020408102040808040201091
:1001700008040201800402018040201008040201EA
:100180000804020101020408102040800102040852
:10019000102040800505050507050808080802022B
:1001A00002020A0A08080404040401010101010111
:1001B00001010303030303030303040707070C0CF4
:1001C0000C0C0C0C0C0C02020202060606060606BB
:1001D00006060B0B0B0B0B0B0B0B00002000230078
:1001E000260029002C002F0032000001000003012E
:1001F0000601090100002200250028002B002E0026
:100200003100340002010000050108010B0100006B
:100210002100240027002A002D00300033000101B6
:100220000000040107010A016B036B048C0D11240B
:100230001FBECFEFD1E2DEBFCDBF00E00CBF12E0AA
:10024000A0E0B2E0E8EBF7E200E00BBF02C00790ED
:100250000D92A636B107D9F724E0A6E6B2E001C0B8
:100260001D92A937B207E1F712E0CEE2D2E000E03A
:1002700006C022970109FE010BBF0E94C713C832B6
:10028000D10780E00807A9F70E94D00D0C94DA137B
:10029000B7CECF9383E193E0F7D28BEA92E0E2D539
:1002A0008BEA92E00BD560E087E30E948E0C60E061
:1002B00088E30E948E0CC2E060E08C2F0E948E0CBE
:1002C000CF5FC730C9F761E08C2F0E948E0CCF5FE3
:1002D000CC30C9F723E333E34EED52E461E070E044
:1002E00087EB92E00E94030A87E30E94160CBC0190
:1002F000882777FD8095982F0E94F8116093A302BC
:100300007093A4028093A5029093A60280E090E0EF
:10031000AFE2B4E48093A7029093A802A093A9024D
:10032000B093AA0261E070E086E692E0CF91B3C795
:100330004F925F926F927F92AF92BF92CF92DF9275
:10034000EF92FF920F931F93CF93DF93CDB7DEB75A
:1003500028970FB6F894DEBF0FBECDBF87E30E948B
:10036000160C9C01442737FD4095542F29833A836E
:100370004B835C83CA01B9010E94F8116B017C01B7
:1003800088E30E94160C9C01442737FD4095542FAA
:100390002D833E834F835887CA01B9010E94F8110B
:1003A0002B013C0140E060E08BEA92E0D2D420E0F7
:1003B00030E04DEC53E4C701B6010E94591187FFAC
:1003C00006C065E272E08BEA92E00E941A0E20E01D
:1003D00030E84CEC53E4C701B6010E94A81218168D
:1003E00034F51F921F921F9286E98F93A12CB12C96
:1003F0006501EE24EA9413E0F12E00E010E02AE912
:1004000031E040E050E069817A818B819C810E94DB
:100410009F0F0E94F811AB01BC0122E030E08BEA93
:1004200092E00E949E0F0F900F900F900F9040E06F
:1004300067E08BEA92E08DD420E030E04DE453E4B5
:10044000C301B2010E94591187FF06C065E272E044
:100450008BEA92E00E941A0E20E030E04CE453E474
:10046000C301B2010E94A8121816DCF51F921F9258
:1004700081E08F9380E98F93A12CB12C6501EE244C
:10048000EA9413E0F12E00E010E02DEC30E040E0C3
:1004900050E06D817E818F8198850E949F0F0F9023
:1004A0000F900F900F900E94F811AB01BC0122E059
:1004B00030E08BEA92E028960FB6F894DEBF0FBECC
:1004C000CDBFDF91CF911F910F91FF90EF90DF9003
:1004D000CF90BF90AF907F906F905F904F900C94B3
:1004E0009E0F28960FB6F894DEBF0FBECDBFDF91EA
:1004F000CF911F910F91FF90EF90DF90CF90BF9021
:10050000AF907F906F905F904F9008951F93CF931F
:10051000DF9312E0C0E0D0E0812F0E94FC0C019735
:1005200009F421961F5F1730B9F7CE01DF91CF9103
:100530001F910895AF92BF92CF92DF92EF92FF92F8
:100540000F931F93CF93DF932091A3023091A402C6
:100550004091A5025091A6026091A7027091A80255
:100560008091A9029091AA020E94F4106B017C0173
:1005700020E030E0A9010E94A812181624F0F7FA32
:10058000F094F7F8F094C2DF5C0187E30E94160C48
:10059000BC01882777FD8095982F0E94F811609301
:1005A000A3027093A4028093A5029093A60220E078
:1005B00030E040E251E4C701B6010E94591187FFC3
:1005C00019C0C0900402D0900502E0900602F0909D
:1005D0000702009108021091090220910A0230914D
:1005E0000B0240910C0250910D0260910E0270912D
:1005F0000F0218C0C0901002D0901102E0901202B9
:10060000F09013020091140210911502209116022D
:1006100030911702409118025091190260911A020C
:1006200070911B0286E692E03DD586E692E01BD4EF
:1006300041E060E08BEA92E08CD34AE050E0B50103
:100640008BEA92E00E94C00E6BE272E08BEA92E0CD
:100650000E941A0E40919F025091A0026091A10247
:100660007091A20222E030E08BEA92E00E949E0F9D
:1006700017E08BEF810F0E94FC0C0197A9F4D7FFC4
:1006800013C061E0812F0E94C70C21961F5F1C30B0
:1006900081F7DF91CF911F910F91FF90EF90DF9045
:1006A000CF90BF90AF90089560E0812F0E94C70C5B
:1006B000EDCF40E060E08BEA92E04BD368EC75E070
:1006C00087EB92E0DBD664EF71E080E090E00E947F
:1006D000840B2EDE2FCFAF92BF92CF92DF92EF929C
:1006E000FF920F931F9324E044E160E28BEA92E0D3
:1006F000BDD2A0900802B0900902C0900A02D0902A
:100700000B02E0900C02F0900D0200910E0210918D
:100710000F021F921F92809107028F938091060211
:100720008F93809105028F93809104028F9327EA23
:1007300032E04FE952E063EA72E086E692E0F9D5F2
:100740000F900F900F900F900F900F901F910F919F
:10075000FF90EF90DF90CF90BF90AF900895809181
:10076000430390E020914403821B91090895209156
:10077000440380914303281750F4E22FF0E0EB5B31
:10078000FC4F808190E02F5F2093440308958FEF0A
:100790009FEF0895E091440380914303E81730F4FC
:1007A000F0E0EB5BFC4F808190E008958FEF9FEFCE
:1007B00008950895CF92DF92EF92FF920F931F93C7
:1007C000CF93DF937C01CB018A0120911F03222369
:1007D00089F0EB016B01C40ED51ECC15DD0561F06F
:1007E0006991D701ED91FC910190F081E02DC70155
:1007F0001995F3CF642FE3D0C801DF91CF911F91FA
:100800000F91FF90EF90DF90CF900895CF93DF93FB
:100810001F92CDB7DEB7698320911F032223D1F049
:1008200020912003203240F021E030E0FC013383AE
:10083000228380E090E014C080912103E82FF0E053
:10084000EE5DFC4F998190838F5F809321038093AD
:10085000200304C061E0CE010196B1D081E090E0B8
:100860000F90DF91CF910895FC011382128248EE20
:1008700053E060E070E0448355836683778381E3CF
:1008800092E0918380830895109244031092430371
:10089000109221031092200321C081E080931F0356
:1008A00060934203109221031092200308950F9346
:1008B000062F21E04091200362E273E08091420321
:1008C0002BD0109221031092200310921F030F913E
:1008D000089561E0ECCF83E193E0C6CF1092D2039C
:1008E00081E08093D0031092CF0361E084E10E9405
:1008F000C70C61E085E10E94C70CE9EBF0E0808164
:100900008E7F808380818D7F808388E48093B80090
:1009100085E48093BC0008950F93413208F046C0EF
:100920009091D2039111FCCF92E09093D203009367
:10093000D0039FEF909365031092AA034093A903FD
:10094000FB016BEA73E0DB019A2F961B941718F4F6
:1009500091919D93F9CF1092D1039091D103880F7B
:10096000892B8093D1038091CF03813041F4109281
:10097000CF038091D1038093BB0085EC01C085EE4D
:100980008093BC00222321F08091D2038230E1F3D6
:10099000809165038F3F61F080916503803251F053
:1009A00080916503803341F483E007C081E005C096
:1009B00080E003C082E001C084E00F9108956132BD
:1009C00098F42091D203243089F460938703FC01CA
:1009D00089E893E0DC012A2F281B261718F42191BF
:1009E0002D93F9CF80E0089581E0089582E0089585
:1009F00085ED8093BC008091BC0084FDFCCF1092FB
:100A0000D203089585EC8093BC001092D203089520
:100A10001F920F920FB60F9211240BB60F922F93C5
:100A20003F934F935F936F937F938F939F93AF9376
:100A3000BF93EF93FF938091B900887F803609F4CC
:100A40009CC068F5883209F45BC090F4803109F4E9
:100A500054C038F4882309F4F3C0883009F44DC039
:100A6000F2C0883109F44CC0803209F45DC0EBC09B
:100A7000803409F468C048F4803309F455C08833E1
:100A800009F0E1C080936503A7C0803509F44FC029
:100A9000883509F45DC0883409F0D5C0D3C08839E1
:100AA00009F4C4C0A8F4883709F467C038F488365C
:100AB00009F463C0803709F460C0C5C0883809F400
:100AC000B5C0803909F45FC0803809F0BCC05BC094
:100AD000803B09F483C038F4803A09F466C0883A50
:100AE00009F47CC0B0C0803C09F4A4C0883C09F47F
:100AF000A1C0883B09F487C0A6C08091D10310C073
:100B00009091AA038091A903981770F5E091AA0328
:100B100081E08E0F8093AA03F0E0E555FC4F8081C1
:100B20008093BB0085EC83C0809365038BC0E0910C
:100B3000AA0381E08E0F8093AA038091BB00F0E0AE
:100B4000E555FC4F80839091AA038091A9036BC067
:100B5000E091AA0381E08E0F8093AA038091BB00ED
:100B6000F0E0E555FC4F80838091D00381116AC08D
:100B700081E08093CF0384EA5EC083E08093D20358
:100B800010926603CFCF80916603803208F04EC08A
:100B9000E091660381E08E0F809366038091BB0035
:100BA000F0E0E959FC4F8083BDCF8091660380322D
:100BB00030F4E0916603F0E0E959FC4F108218DF51
:100BC0006091660370E0E091CB03F091CC0387E67F
:100BD00093E019951092660315DF35C084E0809389
:100BE000D2031092880310928703E091CD03F09115
:100BF000CE03199580918703811105C081E0809310
:100C0000870310928903E091880381E08E0F80931F
:100C10008803F0E0E757FC4F80818093BB00909100
:100C2000880380918703981708F47CCF85E8809328
:100C3000BC0009C085EC8093BC001092D20303C0B5
:100C400010926503D5DEFF91EF91BF91AF919F9117
:100C50008F917F916F915F914F913F912F910F9065
:100C60000BBE0F900FBE0F901F901895FC011382C2
:100C7000128281E492E0918380836483418722879A
:100C800080E8838708951F93CF93DF93EC01162F9D
:100C90006C8183E193E001DEE0911303F091140392
:100CA0006B85612B0190F081E02D83E193E0199534
:100CB00083E193E0DF91CF911F910BCEFC0113866E
:100CC00060E0E1CF1F93CF93DF93EC01162F6061BB
:100CD000DADF81E090E03DD5612F6F7ECE01D3DF7A
:100CE00082E390E0DF91CF911F9133C51F93CF93A3
:100CF000DF93EC01162FC7DF612FCE01DF91CF917B
:100D00001F91E0CFEF92FF921F93CF93DF931F923B
:100D1000CDB7DEB77C01162F62956F70642B4983C7
:100D2000E5DF612F6F704981642BC7010F90DF9160
:100D3000CF911F91FF90EF90D9CF40E0E3CF61E0DA
:100D4000FCDF80ED97E005C562E0F7DF80ED97E01E
:100D500000C5CF93DF93CDB7DEB728970FB6F894D1
:100D6000DEBF0FBECDBF28E0EDE1F2E0DE0111965F
:100D700001900D922A95E1F7FC012085241710F4CB
:100D80004FEF420FFE013196E40FF11DE40FF11D0C
:100D90002081260F2068622F28960FB6F894DEBFB8
:100DA0000FBECDBFDF91CF91C8CFFC016681262F4A
:100DB000246026836C60C1CF40E4A4DF80E090E033
:100DC0000895CF93DF93EC01423018F08D81886055
:100DD0008D834887222329F0413019F48D81846066
:100DE0008D8380E593ECB5D46B85CE014CDF68EE46
:100DF00073E080E090E088D463E0CE0177DF84E99F
:100E000091E1A7D463E0CE0171DF84E991E1A1D43F
:100E100063E0CE016BDF86E990E09BD462E0CE0117
:100E200065DF6D816062CE0188DF84E08E83CE0154
:100E3000BCDFCE0184DF82E08F8366E0CE017DDF00
:100E4000CE01DF91CF9180CFCF93DF93EC0183E18F
:100E500093E01ADD1D8220E04A856985CE01DF918D
:100E6000CF91AFCFF1CF2F923F924F925F926F927F
:100E70007F928F929F92AF92BF92CF92DF92EF922A
:100E8000FF920F931F93CF93DF93CDB7DEB72B97CE
:100E90000FB6F894DEBF0FBECDBF9B878A87DC01FB
:100EA000D896BC91B983B11102C01982E1C0FDD3BB
:100EB0006A837B838C839D83EA85FB8580A191A1D6
:100EC000A2A1B3A14A815B816C817D81481B590B32
:100ED0006A0B7B0B84A595A5A6A5B7A5481759074E
:100EE0006A077B0710F3028CF38DE02D80809180E0
:100EF000A280B380AA85BB855E96ED91FC915F9739
:100F0000A501940160817181828193810E94F41016
:100F10002B013C01EA85FB8520893189428953896F
:100F20000E94AC12AA85BB8594962D913D914D915E
:100F30005C9197970E94F5106B017C01EA85FB8517
:100F400064A375A386A397A324A835A806A917A907
:100F50009101A8010E94A81218161CF4C101D80121
:100F600018C0AA85BB85D0968D919D910D90BC919E
:100F7000A02D8E839F83A887B9879C01AD01C701EF
:100F8000B6010E94591187FF0AC08E819F81A885F2
:100F9000B985EA85FB8584A395A3A6A3B7A3AA85F3
:100FA000BB851C962D913D914D915C911F97C3017E
:100FB000B2010E94AC12EA85FB8524A135A146A1AD
:100FC00057A10E94F5106B017C01AA85BB859896FC
:100FD0002D913D914D915C919B97C501B4010E946B
:100FE000F410EA85FB8524893589468957890E9452
:100FF000AC129B01AC01C701B6010E94F4106B0159
:101000007C019101A8010E94A8121816BCF0AA85C3
:10101000BB85D0962C90D097D1963C90D197D29604
:101020000C91D297D3961C919101A801B601C701EA
:101030000E94591187FD02C016018701AA85BB8550
:101040005C96ED91FC915D97C101D80180839183FD
:10105000A283B383EA85FB8580A691A6A2A6B3A648
:101060008A819B81AC81BD8180A391A3A2A3B3A3FC
:1010700089812B960FB6F894DEBF0FBECDBFDF91EE
:10108000CF911F910F91FF90EF90DF90CF90BF9085
:10109000AF909F908F907F906F905F904F903F9018
:1010A0002F9008952F923F924F925F926F927F926E
:1010B0008F929F92AF92BF92CF92DF92EF92FF9268
:1010C0000F931F93CF93DF9300D01F92CDB7DEB75E
:1010D0001C012A013B014801590120E030E0A9012F
:1010E000C301B2010E94591187FD78C020E030E0B1
:1010F000A901C501B4010E94591187FD6FC020E00C
:1011000030E0A901C701B6010E94591187FD66C0F0
:10111000F101408251826282738284829582A6822A
:10112000B782C086D186E286F38664A575A586A5BA
:1011300097A50E94F61120E030E04AE754E40E94AF
:101140005D1169837A838B839C83F1014486558684
:10115000668677869B01AC01C501B4010E94AC1282
:101160004B015C01F101608B718B828B938B298128
:101170003A814B815C81C701B6010E945D116B0110
:101180007C01F101648B758B868B978B808D918DA3
:10119000019721F5A301920160E070E0CB010E946C
:1011A000F410F1016487758786879787A5019401FC
:1011B00060E070E0CB010E94F410F101608B718B54
:1011C000828B938BA701960160E070E0CB010E94B7
:1011D000F410F101648B758B868B978B0F900F90B9
:1011E0000F900F90DF91CF911F910F91FF90EF9093
:1011F000DF90CF90BF90AF909F908F907F906F9037
:101200005F904F903F902F9008958F929F92AF9252
:10121000BF92CF92DF92EF92FF92CF93DF93EC01D8
:10122000EC8DFD8DC080D180E280F380CCA2DDA268
:10123000EEA2FFA2EA8DFB8D80819181A281B38114
:1012400088A799A7AAA7BBA78CA89DA8AEA8BFA846
:10125000A5019401C701B6010E94A812181664F0F6
:1012600088A899A8AAA8BBA8A5019401C701B6019E
:101270000E94591187FF04C08CA29DA2AEA2BFA2FA
:10128000DF91CF91FF90EF90DF90CF90BF90AF9024
:101290009F908F9008951F93CF93DF93EC0111E0FF
:1012A0006130710509F010E088AD91E089271813CD
:1012B00002C0CE01AADF18AFDF91CF911F91089530
:1012C0000F931F93CF93DF93EC018B0188AD88239D
:1012D00049F1888D998D6817790721F12C853D8515
:1012E0004E855F8560E070E0CB017ED76C877D879F
:1012F0008E879F87288939894A895B8960E070E0F9
:10130000CB0172D7688B798B8A8B9B8B2C893D891B
:101310004E895F8960E070E0CB0166D76C8B7D8B76
:101320008E8B9F8B198F088FDF91CF911F910F911B
:1013300008954F925F926F927F928F929F92AF9299
:10134000BF92CF92DF92EF92FF920F931F93CF93B2
:10135000DF9300D01F92CDB7DEB74C0127013801D3
:10136000A982BA82CB82DC82FC01558F448F738FB5
:10137000628F378F268F10AE10AA11AA12AA13AA55
:1013800080E090E0AFE7B3E484AB95ABA6ABB7AB3E
:1013900084E690E0A0E0B0E084A795A7A6A7B7A751
:1013A0006C8D7D8DC4018CDFC88CD98CEA8CFB8C54
:1013B00009811A812B813C81B301A201C40172DE33
:1013C00074D1F40144A455A466A477A464197509E2
:1013D0008609970960A371A382A393A30F900F902E
:1013E0000F900F90DF91CF911F910F91FF90EF9091
:1013F000DF90CF90BF90AF909F908F907F906F9035
:101400005F904F900895FC01778B668B248F358F0A
:10141000468F578F40E050E060E074E440AF51AF3A
:1014200062AF73AF08958EE580937C0080917B005E
:10143000877F80937B0062E070E080E090E064D181
:1014400080917A00806480937A0080917A0086FD92
:10145000FCCF809178002091790030E0322F222754
:10146000442737FD4095542F282B60E070E381E13D
:1014700090E00E949B13CA01B90108952F923F92F8
:101480004F925F926F927F928F929F92AF92BF9294
:10149000CF92DF92EF92FF920F931F93CF93DF9340
:1014A00000D000D0CDB7DEB79E838D837A83698369
:1014B000BADF2B013C0100E010E08D819E81845B4E
:1014C0009F4F1C01ED81FE81E85BFF4FFC83EB83A6
:1014D00089819A810817190709F44FC0ED81FE81AF
:1014E0008689A4D1ED81FE8197A386A3BC018827BC
:1014F00077FD8095982F7CD76B017C01ED81FE8173
:1015000080AC91ACA2ACB3ACA50194016DD620E047
:1015100030E040E85AE30E94AC129B01AC01C501E7
:10152000B40163D69B01AC01ED81FE8160AF71AF68
:1015300082AF93AFC701B60157D6ED81FE8160AB94
:1015400071AB82AB93AB9B01AC010E94AC129B01CF
:10155000AC01EB81FC816083718382839383F10111
:10156000608171818281938140D6F10160837183B2
:10157000828393830F5F1F4FABCFB80180E090E071
:1015800035D79B01AC01F10160817181828193812A
:1015900094D60E9413136B017C01B201882777FD5A
:1015A0008095982F25D720E030E04AE754E485D68F
:1015B00020E030E040E85AE3CFD7ED81FE81248D72
:1015C000358D468D578DC8D7A7019601C5D7ED81BA
:1015D000FE81608B718B828B938BF1011082118263
:1015E0001282138226960FB6F894DEBF0FBECDBFCF
:1015F000DF91CF911F910F91FF90EF90DF90CF90EF
:10160000BF90AF909F908F907F906F905F904F9022
:101610003F902F9008951F920F920FB60F921124B2
:101620002F933F938F939F93AF93BF938091D40356
:101630009091D503A091D603B091D7033091D303F5
:1016400023E0230F2D3720F40196A11DB11D05C005
:1016500026E8230F0296A11DB11D2093D30380938A
:10166000D4039093D503A093D603B093D70380916E
:10167000D8039091D903A091DA03B091DB030196CE
:10168000A11DB11D8093D8039093D903A093DA03D1
:10169000B093DB03BF91AF919F918F913F912F91B9
:1016A0000F900FBE0F901F9018952FB7F894609170
:1016B000D4037091D5038091D6039091D7032FBFA7
:1016C00008953FB7F8948091D8039091D903A091E1
:1016D000DA03B091DB0326B5A89B05C02F3F19F0B4
:1016E0000196A11DB11D3FBF6627782F892F9A2F24
:1016F000620F711D811D911D42E0660F771F881FCB
:10170000991F4A95D1F70895CF92DF92EF92FF92F9
:10171000CF93DF936B017C01D4DFEB01C114D104C3
:10172000E104F10479F050D4CCDF6C1B7D0B683EF2
:101730007340A0F381E0C81AD108E108F108C8514C
:10174000DC4FECCFDF91CF91FF90EF90DF90CF9007
:1017500008958230910538F0880F991F880F991FDE
:1017600005970197F1F70895789484B5826084BD58
:1017700084B5816084BD85B5826085BD85B5816095
:1017800085BDEEE6F0E0808181608083E1E8F0E0F5
:101790001082808182608083808181608083E0E824
:1017A000F0E0808181608083E1EBF0E08081846003
:1017B0008083E0EBF0E0808181608083E1E9F0E00C
:1017C000808182608083808181608083E0E9F0E0B5
:1017D000808181608083E1EAF0E0808182608083A3
:1017E000808181608083E0EAF0E080818160808395
:1017F000E1E2F1E08081826080838081816080838A
:10180000E0E2F1E0808181608083EAE7F0E08081BE
:101810008460808380818260808380818160808316
:101820008081806880831092C1000895863308F01B
:10183000865320917B00982F9870277F922B90934E
:101840007B00877020911C0290E4299F9001112455
:10185000822B80937C0080917A00806480937A0050
:1018600080917A0086FDFCCF8091780020917900EC
:1018700090E0922B089590E0FC013197E231F10560
:1018800008F04BC0EE58FF4F72C7809180008F77F1
:1018900003C0809180008F7D8093800008958091A7
:1018A0008000877FF9CF84B58F7702C084B58F7DA4
:1018B00084BD08958091B0008F7703C08091B000FF
:1018C0008F7D8093B0000895809190008F7707C03E
:1018D000809190008F7D03C080919000877F8093DE
:1018E000900008958091A0008F7707C08091A0009C
:1018F0008F7D03C08091A000877F8093A000089512
:10190000809120018F7707C0809120018F7D03C0D7
:1019100080912001877F809320010895CF93DF93EA
:1019200090E0FC01E25BFE4F2491FC01EC56FE4F7F
:101930008491882349F190E0880F991FFC01E25FB0
:10194000FD4FA591B4918C509E4FFC01C591D4914F
:101950009FB7611108C0F8948C91209582238C93D5
:10196000888182230AC0623051F4F8948C91322F1E
:10197000309583238C938881822B888304C0F894CC
:101980008C91822B8C939FBFDF91CF9108950F9301
:101990001F93CF93DF931F92CDB7DEB7282F30E090
:1019A000F901E85FFE4F8491F901E25BFE4F14916B
:1019B000F901EC56FE4F04910023C1F0882319F081
:1019C000698359DF6981E02FF0E0EE0FFF1FEC50D3
:1019D000FE4FA591B4919FB7F8948C91611103C00B
:1019E0001095812301C0812B8C939FBF0F90DF91B5
:1019F000CF911F910F910895CF93DF93282F30E05F
:101A0000F901E85FFE4F8491F901E25BFE4FD4914A
:101A1000F901EC56FE4FC491CC2389F081112BDFE4
:101A2000EC2FF0E0EE0FFF1FE652FE4FA591B491B0
:101A30002C912D2381E090E021F480E002C080E031
:101A400090E0DF91CF9108951F920F920FB60F9201
:101A500011240BB60F922F938F939F93EF93FF93C5
:101A6000E091EC03F091ED038081E091F203F091BD
:101A7000F30382FD12C090818091F5038F5F8F7315
:101A80002091F603821751F0E091F503F0E0E45263
:101A9000FC4F958F8093F50301C08081FF91EF91FA
:101AA0009F918F912F910F900BBE0F900FBE0F90B3
:101AB0001F9018951F920F920FB60F9211240BB61C
:101AC0000F922F933F934F935F936F937F938F93D7
:101AD0009F93AF93BF93EF93FF938CED93E0DED290
:101AE000FF91EF91BF91AF919F918F917F916F91F6
:101AF0005F914F913F912F910F900BBE0F900FBEB2
:101B00000F901F9018958CED93E05FD221E0892B08
:101B100009F420E0822F08951092DF031092DE0373
:101B200088EE93E0A0E0B0E08093E0039093E103BF
:101B3000A093E203B093E3038AE592E09093DD0380
:101B40008093DC0385EC90E09093E9038093E803B5
:101B500084EC90E09093EB038093EA0380EC90E0B8
:101B60009093ED038093EC0381EC90E09093EF036E
:101B70008093EE0382EC90E09093F1038093F00366
:101B800086EC90E09093F3038093F2031092F503B8
:101B90001092F6031092F7031092F8030895089537
:101BA000E3DDFDDF0E944901C2E1D0E10E9459035B
:101BB0002097E1F337D2FACFCF92DF92EF92FF92E4
:101BC0000F931F93CF93DF936C017A01EB01E60E25
:101BD000F71E00E010E0CE15DF0561F06991D60137
:101BE000ED91FC910190F081E02DC6011995080F4F
:101BF000191FF1CFC801DF91CF911F910F91FF9075
:101C0000EF90DF90CF9008956115710581F0DB01B1
:101C10000D900020E9F7AD0141505109461B570BCB
:101C2000DC01ED91FC910280F381E02D199480E0BC
:101C300090E00895E9CFDC01ED91FC910190F081F5
:101C4000E02D19948F929F92AF92BF92CF92DF9224
:101C5000EF92FF920F931F93CF93DF93CDB7DEB731
:101C6000A1970FB6F894DEBF0FBECDBF7C01C42E86
:101C7000E52FCB01D22E19A221E02D1510F02AE07C
:101C8000D22E8E010F5D1F4F8D2C912CA12CB12CCB
:101C90006C2D7E2FA50194012CD58C2DD29E801900
:101CA0001124015011098A3014F4805D01C0895C4F
:101CB000F8018083211531054105510521F0C22E1F
:101CC000E32FCA01E5CFB801C7019EDFA1960FB689
:101CD000F894DEBF0FBECDBFDF91CF911F910F9162
:101CE000FF90EF90DF90CF90BF90AF909F908F903C
:101CF0000895CF92DF92EF92FF920F931F93CF93AD
:101D0000DF93EC016A017B012115310579F4E8814B
:101D1000F9810190F081E02D642FDF91CF911F9127
:101D20000F91FF90EF90DF90CF9019942A303105FA
:101D3000D9F477FF18C06DE27EDF8C014427552768
:101D4000BA014C195D096E097F092AE0CE017ADFDC
:101D5000800F911FDF91CF911F910F91FF90EF9016
:101D6000DF90CF9008952AE0B701A601CE01DF9160
:101D7000CF911F910F91FF90EF90DF90CF9062CFA6
:101D80009A01AB01662757FD6095762FB2CF4F922F
:101D90005F926F927F928F929F92AF92BF92CF92FB
:101DA000DF92EF92FF920F931F93CF93DF93EC019B
:101DB0006A017B01B22E9A01AB01C701B60171D451
:101DC000882319F068E472E024C026013701E89402
:101DD00077F82FEF3FEF4FE75FE7C301B20161D420
:101DE00081110CC02FEF3FEF4FE75FE7C301B20156
:101DF00060D218161CF46CE472E00BC02FEF3FEFBA
:101E00004FE75FE4C701B601A3D31816A4F460E559
:101E100072E0CE01DF91CF911F910F91FF90EF9073
:101E2000DF90CF90BF90AF909F908F907F906F90FA
:101E30005F904F90E9CE2FEF3FEF4FE75FECC70188
:101E4000B60137D287FDE3CF20E030E0A901C7011A
:101E5000B6012FD287FF09C06DE2CE01ECDE8C0106
:101E6000F7FAF094F7F8F09402C000E010E0A12C2B
:101E700060E070E080E09FE3AB1439F020E030E0F8
:101E800040E251E41AD2A394F7CF9B01AC01C70101
:101E9000B601ABD16B017C017DD22B013C01A6D2F6
:101EA0009B01AC01C701B6019FD16B017C012AE007
:101EB000B301A201CE01C6DE080F191FBB2031F00D
:101EC00064E572E0CE01A0DE080F191F7B2C77209D
:101ED00019F120E030E040E251E4C701B6013CD303
:101EE0006B017C0152D24B01AA2497FCA094BA2C1E
:101EF0002AE030E0B501A401CE01FBDE080F191F76
:101F0000C501B40175D29B01AC01C701B6016CD10A
:101F10006B017C017A94DBCFC801DF91CF911F91D7
:101F20000F91FF90EF90DF90CF90BF90AF909F9078
:101F30008F907F906F905F904F90089528CF4F9231
:101F40005F926F927F92AF92BF92CF92DF92EF92A9
:101F5000FF920F931F93CF93DF93CDB7DEB7290185
:101F60003A01621B730B840B950B2A893B894C89C0
:101F70005D892A193B094C095D092A8B3B8B4C8BE7
:101F80005D8B9B01AC016A897B898C899D89A2D379
:101F9000E418F50806091709A8019701CCD32A0D02
:101FA0003B1D4C1D5D1DCA01B901DF91CF911F91F1
:101FB0000F91FF90EF90DF90CF90BF90AF907F9008
:101FC0006F905F904F9008950895FC01818D228D50
:101FD00090E0805C9F4F821B91098F739927089531
:101FE000FC01918D828D981731F0828DE80FF11DE3
:101FF000858D90E008958FEF9FEF0895FC01918DFE
:10200000828D981761F0828DDF01A80FB11D5D965A
:102010008C91928D9F5F9F73928F90E008958FEFC8
:102020009FEF089583E89DE0892B39F080E090E0F0
:10203000892B19F068DD811125C080E090E0892BA3
:1020400041F080E090E0892B21F00E940000811196
:102050001CC080E090E0892B41F080E090E0892B6B
:1020600021F00E940000811113C080E090E0892BD4
:10207000A1F080E090E0892B81F00E9400008111A6
:102080000AC008950E940000D8CF0E940000E1CF4E
:102090000E940000EACF0C9400000895FC01848D9A
:1020A000DF01A80FB11DA35ABF4F2C91848D90E082
:1020B00001968F739927848FA689B7892C93A0895D
:1020C000B1898C9180648C93938D848D981306C014
:1020D0000288F389E02D80818F7D80830895CF93DE
:1020E000DF93EC01888D8823C1F0EA89FB89808128
:1020F00085FD05C0A889B9898C9186FD0EC00FB6F3
:1021000007FCF5CF808185FFF2CFA889B9898C9132
:1021100085FFEDCFCE01C2DFE8CFDF91CF910895EB
:10212000CF92DF92FF920F931F93CF93DF931F9273
:10213000CDB7DEB76C0181E0D60158968C935897E5
:102140005B969C915B975C968C915C97981307C00B
:102150005096ED91FC915197808185FD2DC0F6013F
:10216000038D10E00F5F1F4F0F731127F02EF60144
:10217000848DF81210C00FB607FCF9CFD601509627
:10218000ED91FC915197808185FFF1CFC601698364
:1021900085DF6981ECCF838DE80FF11DE35AFF4F96
:1021A0006083D6015B960C935B975296ED91FC9100
:1021B0005397808180620CC0D6015696ED91FC91B8
:1021C000579760835096ED91FC9151978081806480
:1021D000808381E090E00F90DF91CF911F910F916C
:1021E000FF90DF90CF9008955058BB27AA270ED0BC
:1021F00075C166D130F06BD120F031F49F3F11F4FE
:102200001EF45BC10EF4E095E7FB51C1E92F77D1D5
:1022100080F3BA17620773078407950718F071F403
:102220009EF58FC10EF4E0950B2EBA2FA02D0B0159
:10223000B90190010C01CA01A0011124FF27591B0B
:1022400099F0593F50F4503E68F11A16F040A22F11
:10225000232F342F4427585FF3CF46953795279582
:10226000A795F0405395C9F77EF41F16BA0B620B81
:10227000730B840BBAF09150A1F0FF0FBB1F661FC8
:10228000771F881FC2F70EC0BA0F621F731F841F0B
:1022900048F4879577956795B795F7959E3F08F031
:1022A000B3CF9395880F08F09927EE0F97958795F0
:1022B0000895D9D008F481E008950CD00FC107D15A
:1022C00040F0FED030F021F45F3F19F0F0C0511122
:1022D00039C1F3C014D198F39923C9F35523B1F34D
:1022E000951B550BBB27AA2762177307840738F085
:1022F0009F5F5F4F220F331F441FAA1FA9F333D0E4
:102300000E2E3AF0E0E830D091505040E695001C97
:10231000CAF729D0FE2F27D0660F771F881FBB1F53
:10232000261737074807AB07B0E809F0BB0B802D2D
:10233000BF01FF2793585F4F2AF09E3F510568F079
:10234000B6C000C15F3FECF3983EDCF3869577950D
:102350006795B795F7959F5FC9F7880F911D96957B
:10236000879597F90895E1E0660F771F881FBB1FD7
:10237000621773078407BA0720F0621B730B840B84
:10238000BA0BEE1F88F7E095089504D06894B11158
:10239000D9C00895BCD088F09F5790F0B92F9927E5
:1023A000B751A0F0D1F0660F771F881F991F1AF060
:1023B000BA95C9F712C0B13081F0C3D0B1E0089529
:1023C000C0C0672F782F8827B85F39F0B93FCCF3AA
:1023D000869577956795B395D9F73EF49095809556
:1023E000709561957F4F8F4F9F4F0895E89409C076
:1023F00097FB3EF490958095709561957F4F8F4F38
:102400009F4F9923A9F0F92F96E9BB279395F6954D
:10241000879577956795B795F111F8CFFAF4BB0FCB
:1024200011F460FF1BC06F5F7F4F8F4F9F4F16C02F
:10243000882311F096E911C0772321F09EE8872FB9
:10244000762F05C0662371F096E8862F70E060E075
:102450002AF09A95660F771F881FDAF7880F9695EE
:10246000879597F90895990F0008550FAA0BE0E892
:10247000FEEF16161706E807F907C0F01216130646
:10248000E407F50798F0621B730B840B950B39F486
:102490000A2661F0232B242B252B21F408950A26EC
:1024A00009F4A140A6958FEF811D811D089597F92C
:1024B0009F6780E870E060E008959FEF80EC0895EA
:1024C00000240A9416161706180609060895002413
:1024D0000A9412161306140605060895092E03948D
:1024E000000C11F4882352F0BB0F40F4BF2B11F401
:1024F00060FF04C06F5F7F4F8F4F9F4F089557FD60
:102500009058440F551F59F05F3F71F04795880F61
:1025100097FB991F61F09F3F79F0879508951216F8
:1025200013061406551FF2CF4695F1DF08C01616A4
:1025300017061806991FF1CF869571056105089455
:102540000895E894BB2766277727CB0197F908956C
:102550008ADF08F48FEF08950BD0C0CFB1DF28F0E9
:10256000B6DF18F0952309F0A2CFA7CF1124EACF48
:10257000C6DFA0F3959FD1F3950F50E0551F629FE2
:10258000F001729FBB27F00DB11D639FAA27F00DCC
:10259000B11DAA1F649F6627B00DA11D661F829FF3
:1025A0002227B00DA11D621F739FB00DA11D621FD8
:1025B000839FA00D611D221F749F3327A00D611DF5
:1025C000231F849F600D211D822F762F6A2F1124D7
:1025D0009F5750408AF0E1F088234AF0EE0FFF1F2A
:1025E000BB1F661F771F881F91505040A9F79E3F61
:1025F000510570F05CCFA6CF5F3FECF3983EDCF363
:10260000869577956795B795F795E7959F5FC1F79D
:10261000FE2B880F911D9695879597F9089511F4D3
:102620000EF44BCF42C073DFD0F39923D9F3CEF32E
:102630009F57550B87FF47D00024A0E640EA900142
:1026400080585695979528F4805C660F771F881FF1
:1026500020F026173707480730F4621B730B840BF2
:10266000202931294A2BA695179407942025312536
:102670004A2758F7660F771F881F20F0261737075D
:10268000480730F4620B730B840B200D311D411D84
:10269000A09581F7B901842F9158880F9695879559
:1026A0000895E1DE880B990B08959F3F31F091501A
:1026B00020F4879577956795B795880F911D969526
:1026C000879597F9089591505040660F771F881F9E
:1026D000D2F70895DB018F939F934FD0BF91AF91B5
:1026E000A29F800D911DA39F900DB29F900D11246C
:1026F0000895A1E21A2EAA1BBB1BFD010DC0AA1F43
:10270000BB1FEE1FFF1FA217B307E407F50720F05A
:10271000A21BB30BE40BF50B661F771F881F991FD5
:102720001A9469F760957095809590959B01AC011E
:10273000BD01CF010895052E97FB16F400940FD02C
:1027400057FD05D0D6DF07FC02D046F408C05095EF
:102750004095309521953F4F4F4F5F4F089590958D
:102760008095709561957F4F8F4F9F4F0895EE0F25
:10277000FF1F0590F491E02D19940DD0A59F900DA9
:10278000B49F900DA49F800D911D11240895079072
:10279000F691E02D1994A29FB001B39FC001A39FB1
:1027A000700D811D1124911DB29F700D811D11248A
:0827B000911D0895F894FFCF7C
:1027B800010000000000803ECDCC4C3D0000803F71
:1027C8000000803FCDCC4C3E00008040010000401E
:1027D80000140054004572726F720020000000005F
:1027E800000604DA03AF03B703CA03D903000000E5
:1027F80000DC06DC0D0D0A006E616E00696E660075
:102808006F7666002E00000000009010DC0DE50FCA
:06281800FE0FF00F6F102F
:00000001FF
